{
  "contractName": "SolnSquareVerifier",
  "abi": [
    {
      "inputs": [
        {
          "internalType": "string",
          "name": "name",
          "type": "string"
        },
        {
          "internalType": "string",
          "name": "symbol",
          "type": "string"
        }
      ],
      "payable": false,
      "stateMutability": "nonpayable",
      "type": "constructor"
    },
    {
      "anonymous": false,
      "inputs": [
        {
          "indexed": true,
          "internalType": "address",
          "name": "owner",
          "type": "address"
        },
        {
          "indexed": true,
          "internalType": "address",
          "name": "approved",
          "type": "address"
        },
        {
          "indexed": true,
          "internalType": "uint256",
          "name": "tokenId",
          "type": "uint256"
        }
      ],
      "name": "Approval",
      "type": "event"
    },
    {
      "anonymous": false,
      "inputs": [
        {
          "indexed": true,
          "internalType": "address",
          "name": "owner",
          "type": "address"
        },
        {
          "indexed": true,
          "internalType": "address",
          "name": "operator",
          "type": "address"
        },
        {
          "indexed": false,
          "internalType": "bool",
          "name": "approved",
          "type": "bool"
        }
      ],
      "name": "ApprovalForAll",
      "type": "event"
    },
    {
      "anonymous": false,
      "inputs": [
        {
          "indexed": false,
          "internalType": "uint256",
          "name": "index",
          "type": "uint256"
        },
        {
          "indexed": false,
          "internalType": "address",
          "name": "verifierAddress",
          "type": "address"
        }
      ],
      "name": "CreateSolution",
      "type": "event"
    },
    {
      "anonymous": false,
      "inputs": [
        {
          "indexed": false,
          "internalType": "address",
          "name": "fromAddress",
          "type": "address"
        },
        {
          "indexed": false,
          "internalType": "address",
          "name": "toAddress",
          "type": "address"
        }
      ],
      "name": "EventTransferOwnership",
      "type": "event"
    },
    {
      "anonymous": false,
      "inputs": [
        {
          "indexed": false,
          "internalType": "address",
          "name": "emittingAddress",
          "type": "address"
        }
      ],
      "name": "Paused",
      "type": "event"
    },
    {
      "anonymous": false,
      "inputs": [
        {
          "indexed": true,
          "internalType": "address",
          "name": "from",
          "type": "address"
        },
        {
          "indexed": true,
          "internalType": "address",
          "name": "to",
          "type": "address"
        },
        {
          "indexed": true,
          "internalType": "uint256",
          "name": "tokenId",
          "type": "uint256"
        }
      ],
      "name": "Transfer",
      "type": "event"
    },
    {
      "anonymous": false,
      "inputs": [
        {
          "indexed": false,
          "internalType": "address",
          "name": "emittingAddress",
          "type": "address"
        }
      ],
      "name": "UnPaused",
      "type": "event"
    },
    {
      "constant": false,
      "inputs": [
        {
          "internalType": "bytes32",
          "name": "_myid",
          "type": "bytes32"
        },
        {
          "internalType": "string",
          "name": "_result",
          "type": "string"
        }
      ],
      "name": "__callback",
      "outputs": [],
      "payable": false,
      "stateMutability": "nonpayable",
      "type": "function"
    },
    {
      "constant": false,
      "inputs": [
        {
          "internalType": "bytes32",
          "name": "_myid",
          "type": "bytes32"
        },
        {
          "internalType": "string",
          "name": "_result",
          "type": "string"
        },
        {
          "internalType": "bytes",
          "name": "_proof",
          "type": "bytes"
        }
      ],
      "name": "__callback",
      "outputs": [],
      "payable": false,
      "stateMutability": "nonpayable",
      "type": "function"
    },
    {
      "constant": false,
      "inputs": [
        {
          "internalType": "address",
          "name": "to",
          "type": "address"
        },
        {
          "internalType": "uint256",
          "name": "tokenId",
          "type": "uint256"
        }
      ],
      "name": "approve",
      "outputs": [],
      "payable": false,
      "stateMutability": "nonpayable",
      "type": "function"
    },
    {
      "constant": true,
      "inputs": [
        {
          "internalType": "address",
          "name": "owner",
          "type": "address"
        }
      ],
      "name": "balanceOf",
      "outputs": [
        {
          "internalType": "uint256",
          "name": "",
          "type": "uint256"
        }
      ],
      "payable": false,
      "stateMutability": "view",
      "type": "function"
    },
    {
      "constant": true,
      "inputs": [],
      "name": "baseTokenURI",
      "outputs": [
        {
          "internalType": "string",
          "name": "",
          "type": "string"
        }
      ],
      "payable": false,
      "stateMutability": "view",
      "type": "function"
    },
    {
      "constant": true,
      "inputs": [
        {
          "internalType": "uint256",
          "name": "tokenId",
          "type": "uint256"
        }
      ],
      "name": "getApproved",
      "outputs": [
        {
          "internalType": "address",
          "name": "",
          "type": "address"
        }
      ],
      "payable": false,
      "stateMutability": "view",
      "type": "function"
    },
    {
      "constant": true,
      "inputs": [],
      "name": "getOwner",
      "outputs": [
        {
          "internalType": "address",
          "name": "",
          "type": "address"
        }
      ],
      "payable": false,
      "stateMutability": "view",
      "type": "function"
    },
    {
      "constant": true,
      "inputs": [
        {
          "internalType": "address",
          "name": "owner",
          "type": "address"
        },
        {
          "internalType": "address",
          "name": "operator",
          "type": "address"
        }
      ],
      "name": "isApprovedForAll",
      "outputs": [
        {
          "internalType": "bool",
          "name": "",
          "type": "bool"
        }
      ],
      "payable": false,
      "stateMutability": "view",
      "type": "function"
    },
    {
      "constant": false,
      "inputs": [
        {
          "internalType": "address",
          "name": "to",
          "type": "address"
        },
        {
          "internalType": "uint256",
          "name": "tokenId",
          "type": "uint256"
        }
      ],
      "name": "mint",
      "outputs": [
        {
          "internalType": "bool",
          "name": "",
          "type": "bool"
        }
      ],
      "payable": false,
      "stateMutability": "nonpayable",
      "type": "function"
    },
    {
      "constant": true,
      "inputs": [],
      "name": "name",
      "outputs": [
        {
          "internalType": "string",
          "name": "",
          "type": "string"
        }
      ],
      "payable": false,
      "stateMutability": "view",
      "type": "function"
    },
    {
      "constant": true,
      "inputs": [
        {
          "internalType": "uint256",
          "name": "tokenId",
          "type": "uint256"
        }
      ],
      "name": "ownerOf",
      "outputs": [
        {
          "internalType": "address",
          "name": "",
          "type": "address"
        }
      ],
      "payable": false,
      "stateMutability": "view",
      "type": "function"
    },
    {
      "constant": false,
      "inputs": [
        {
          "internalType": "address",
          "name": "from",
          "type": "address"
        },
        {
          "internalType": "address",
          "name": "to",
          "type": "address"
        },
        {
          "internalType": "uint256",
          "name": "tokenId",
          "type": "uint256"
        }
      ],
      "name": "safeTransferFrom",
      "outputs": [],
      "payable": false,
      "stateMutability": "nonpayable",
      "type": "function"
    },
    {
      "constant": false,
      "inputs": [
        {
          "internalType": "address",
          "name": "from",
          "type": "address"
        },
        {
          "internalType": "address",
          "name": "to",
          "type": "address"
        },
        {
          "internalType": "uint256",
          "name": "tokenId",
          "type": "uint256"
        },
        {
          "internalType": "bytes",
          "name": "_data",
          "type": "bytes"
        }
      ],
      "name": "safeTransferFrom",
      "outputs": [],
      "payable": false,
      "stateMutability": "nonpayable",
      "type": "function"
    },
    {
      "constant": false,
      "inputs": [
        {
          "internalType": "address",
          "name": "to",
          "type": "address"
        },
        {
          "internalType": "bool",
          "name": "approved",
          "type": "bool"
        }
      ],
      "name": "setApprovalForAll",
      "outputs": [],
      "payable": false,
      "stateMutability": "nonpayable",
      "type": "function"
    },
    {
      "constant": false,
      "inputs": [
        {
          "internalType": "bool",
          "name": "flag",
          "type": "bool"
        }
      ],
      "name": "setPaused",
      "outputs": [],
      "payable": false,
      "stateMutability": "nonpayable",
      "type": "function"
    },
    {
      "constant": true,
      "inputs": [
        {
          "internalType": "bytes4",
          "name": "interfaceId",
          "type": "bytes4"
        }
      ],
      "name": "supportsInterface",
      "outputs": [
        {
          "internalType": "bool",
          "name": "",
          "type": "bool"
        }
      ],
      "payable": false,
      "stateMutability": "view",
      "type": "function"
    },
    {
      "constant": true,
      "inputs": [],
      "name": "symbol",
      "outputs": [
        {
          "internalType": "string",
          "name": "",
          "type": "string"
        }
      ],
      "payable": false,
      "stateMutability": "view",
      "type": "function"
    },
    {
      "constant": true,
      "inputs": [
        {
          "internalType": "uint256",
          "name": "index",
          "type": "uint256"
        }
      ],
      "name": "tokenByIndex",
      "outputs": [
        {
          "internalType": "uint256",
          "name": "",
          "type": "uint256"
        }
      ],
      "payable": false,
      "stateMutability": "view",
      "type": "function"
    },
    {
      "constant": true,
      "inputs": [
        {
          "internalType": "address",
          "name": "owner",
          "type": "address"
        },
        {
          "internalType": "uint256",
          "name": "index",
          "type": "uint256"
        }
      ],
      "name": "tokenOfOwnerByIndex",
      "outputs": [
        {
          "internalType": "uint256",
          "name": "",
          "type": "uint256"
        }
      ],
      "payable": false,
      "stateMutability": "view",
      "type": "function"
    },
    {
      "constant": true,
      "inputs": [
        {
          "internalType": "uint256",
          "name": "tokenId",
          "type": "uint256"
        }
      ],
      "name": "tokenURI",
      "outputs": [
        {
          "internalType": "string",
          "name": "",
          "type": "string"
        }
      ],
      "payable": false,
      "stateMutability": "view",
      "type": "function"
    },
    {
      "constant": true,
      "inputs": [],
      "name": "totalSupply",
      "outputs": [
        {
          "internalType": "uint256",
          "name": "",
          "type": "uint256"
        }
      ],
      "payable": false,
      "stateMutability": "view",
      "type": "function"
    },
    {
      "constant": false,
      "inputs": [
        {
          "internalType": "address",
          "name": "from",
          "type": "address"
        },
        {
          "internalType": "address",
          "name": "to",
          "type": "address"
        },
        {
          "internalType": "uint256",
          "name": "tokenId",
          "type": "uint256"
        }
      ],
      "name": "transferFrom",
      "outputs": [],
      "payable": false,
      "stateMutability": "nonpayable",
      "type": "function"
    },
    {
      "constant": false,
      "inputs": [
        {
          "internalType": "address",
          "name": "newOwner",
          "type": "address"
        }
      ],
      "name": "transferOwnership",
      "outputs": [],
      "payable": false,
      "stateMutability": "nonpayable",
      "type": "function"
    },
    {
      "constant": true,
      "inputs": [],
      "name": "getSolutionsNumber",
      "outputs": [
        {
          "internalType": "uint256",
          "name": "",
          "type": "uint256"
        }
      ],
      "payable": false,
      "stateMutability": "view",
      "type": "function"
    },
    {
      "constant": false,
      "inputs": [
        {
          "internalType": "address",
          "name": "to",
          "type": "address"
        },
        {
          "internalType": "uint256",
          "name": "tokenId",
          "type": "uint256"
        },
        {
          "components": [
            {
              "components": [
                {
                  "internalType": "uint256",
                  "name": "X",
                  "type": "uint256"
                },
                {
                  "internalType": "uint256",
                  "name": "Y",
                  "type": "uint256"
                }
              ],
              "internalType": "struct Pairing.G1Point",
              "name": "a",
              "type": "tuple"
            },
            {
              "components": [
                {
                  "internalType": "uint256[2]",
                  "name": "X",
                  "type": "uint256[2]"
                },
                {
                  "internalType": "uint256[2]",
                  "name": "Y",
                  "type": "uint256[2]"
                }
              ],
              "internalType": "struct Pairing.G2Point",
              "name": "b",
              "type": "tuple"
            },
            {
              "components": [
                {
                  "internalType": "uint256",
                  "name": "X",
                  "type": "uint256"
                },
                {
                  "internalType": "uint256",
                  "name": "Y",
                  "type": "uint256"
                }
              ],
              "internalType": "struct Pairing.G1Point",
              "name": "c",
              "type": "tuple"
            }
          ],
          "internalType": "struct Verifier.Proof",
          "name": "proof",
          "type": "tuple"
        },
        {
          "internalType": "uint256[2]",
          "name": "input",
          "type": "uint256[2]"
        }
      ],
      "name": "mintVerifySol",
      "outputs": [],
      "payable": false,
      "stateMutability": "nonpayable",
      "type": "function"
    }
  ],
  "bytecode": "0x60806040526040518060600160405280603f815260200162005119603f91396014908051906020019062000035929190620003ac565b5060006017553480156200004857600080fd5b50604051620051583803806200515883398181016040526200006e9190810190620004c5565b8181818160148054600181600116156101000203166002900480601f0160208091040260200160405190810160405280929190818152602001828054600181600116156101000203166002900480156200010c5780601f10620000e0576101008083540402835291602001916200010c565b820191906000526020600020905b815481529060010190602001808311620000ee57829003601f168201915b5050505050336000806101000a81548173ffffffffffffffffffffffffffffffffffffffff021916908373ffffffffffffffffffffffffffffffffffffffff1602179055507fc725865e7cdcd866e230cd3a87b0f9178cebce0a4f3d2d2e026474a1e2ee44396000336040516200018592919062000549565b60405180910390a160008060146101000a81548160ff021916908315150217905550620001bf6301ffc9a760e01b6200030c60201b60201c565b620001d76380ac58cd60e01b6200030c60201b60201c565b620001ef63780e9d6360e01b6200030c60201b60201c565b82600f908051906020019062000207929190620003ac565b50816010908051906020019062000220929190620003ac565b50806011908051906020019062000239929190620003ac565b5062000252635b5e139f60e01b6200030c60201b60201c565b50505033601360006101000a81548173ffffffffffffffffffffffffffffffffffffffff021916908373ffffffffffffffffffffffffffffffffffffffff1602179055505050604051620002a69062000433565b604051809103906000f080158015620002c3573d6000803e3d6000fd5b50601560006101000a81548173ffffffffffffffffffffffffffffffffffffffff021916908373ffffffffffffffffffffffffffffffffffffffff160217905550505062000663565b63ffffffff60e01b817bffffffffffffffffffffffffffffffffffffffffffffffffffffffff191614156200034057600080fd5b6001806000837bffffffffffffffffffffffffffffffffffffffffffffffffffffffff19167bffffffffffffffffffffffffffffffffffffffffffffffffffffffff1916815260200190815260200160002060006101000a81548160ff02191690831515021790555050565b828054600181600116156101000203166002900490600052602060002090601f016020900481019282601f10620003ef57805160ff191683800117855562000420565b8280016001018555821562000420579182015b828111156200041f57825182559160200191906001019062000402565b5b5090506200042f919062000441565b5090565b6110df806200403a83390190565b6200046691905b808211156200046257600081600090555060010162000448565b5090565b90565b600082601f8301126200047b57600080fd5b8151620004926200048c82620005a4565b62000576565b91508082526020830160208301858383011115620004af57600080fd5b620004bc8382846200062d565b50505092915050565b60008060408385031215620004d957600080fd5b600083015167ffffffffffffffff811115620004f457600080fd5b620005028582860162000469565b925050602083015167ffffffffffffffff8111156200052057600080fd5b6200052e8582860162000469565b9150509250929050565b6200054381620005f1565b82525050565b600060408201905062000560600083018562000538565b6200056f602083018462000538565b9392505050565b6000604051905081810181811067ffffffffffffffff821117156200059a57600080fd5b8060405250919050565b600067ffffffffffffffff821115620005bc57600080fd5b601f19601f8301169050602081019050919050565b600073ffffffffffffffffffffffffffffffffffffffff82169050919050565b6000620005fe8262000605565b9050919050565b6000620006128262000619565b9050919050565b60006200062682620005d1565b9050919050565b60005b838110156200064d57808201518184015260208101905062000630565b838111156200065d576000848401525b50505050565b6139c780620006736000396000f3fe608060405234801561001057600080fd5b50600436106101735760003560e01c80634f6ccce7116100de578063b88d4fde11610097578063cc79253211610071578063cc7925321461046e578063d547cfb71461048a578063e985e9c5146104a8578063f2fde38b146104d857610173565b8063b88d4fde14610404578063c778d51e14610420578063c87b56dd1461043e57610173565b80634f6ccce71461031c5780636352211e1461034c57806370a082311461037c578063893d20e8146103ac57806395d89b41146103ca578063a22cb465146103e857610173565b806323b872dd1161013057806323b872dd1461024c57806327dc297e146102685780632f745c591461028457806338bbfa50146102b457806340c10f19146102d057806342842e0e1461030057610173565b806301ffc9a71461017857806306fdde03146101a8578063081812fc146101c6578063095ea7b3146101f657806316c38b3c1461021257806318160ddd1461022e575b600080fd5b610192600480360361018d9190810190612d36565b6104f4565b60405161019f919061345c565b60405180910390f35b6101b061055c565b6040516101bd9190613477565b60405180910390f35b6101e060048036036101db9190810190612d88565b6105fe565b6040516101ed91906133b1565b60405180910390f35b610210600480360361020b9190810190612b70565b61063b565b005b61022c60048036036102279190810190612c11565b6107f0565b005b610236610927565b604051610243919061366b565b60405180910390f35b61026660048036036102619190810190612a6a565b610934565b005b610282600480360361027d9190810190612c63565b610957565b005b61029e60048036036102999190810190612b70565b61099a565b6040516102ab919061366b565b60405180910390f35b6102ce60048036036102c99190810190612cb7565b610a0d565b005b6102ea60048036036102e59190810190612b70565b610a12565b6040516102f7919061345c565b60405180910390f35b61031a60048036036103159190810190612a6a565b610ac2565b005b61033660048036036103319190810190612d88565b610ae2565b604051610343919061366b565b60405180910390f35b61036660048036036103619190810190612d88565b610b16565b60405161037391906133b1565b60405180910390f35b61039660048036036103919190810190612a05565b610b53565b6040516103a3919061366b565b60405180910390f35b6103b4610ba3565b6040516103c191906133b1565b60405180910390f35b6103d2610bcc565b6040516103df9190613477565b60405180910390f35b61040260048036036103fd9190810190612b34565b610c6e565b005b61041e60048036036104199190810190612ab9565b610da4565b005b610428610dca565b604051610435919061366b565b60405180910390f35b61045860048036036104539190810190612d88565b610dd4565b6040516104659190613477565b60405180910390f35b61048860048036036104839190810190612bac565b610e9b565b005b610492611093565b60405161049f9190613477565b60405180910390f35b6104c260048036036104bd9190810190612a2e565b611135565b6040516104cf919061345c565b60405180910390f35b6104f260048036036104ed9190810190612a05565b6111c9565b005b600060016000837bffffffffffffffffffffffffffffffffffffffffffffffffffffffff19167bffffffffffffffffffffffffffffffffffffffffffffffffffffffff1916815260200190815260200160002060009054906101000a900460ff169050919050565b6060600f8054600181600116156101000203166002900480601f0160208091040260200160405190810160405280929190818152602001828054600181600116156101000203166002900480156105f45780601f106105c9576101008083540402835291602001916105f4565b820191906000526020600020905b8154815290600101906020018083116105d757829003601f168201915b5050505050905090565b60006003600083815260200190815260200160002060009054906101000a900473ffffffffffffffffffffffffffffffffffffffff169050919050565b8173ffffffffffffffffffffffffffffffffffffffff1661065b82610b16565b73ffffffffffffffffffffffffffffffffffffffff1614156106b2576040517f08c379a00000000000000000000000000000000000000000000000000000000081526004016106a990613539565b60405180910390fd5b3373ffffffffffffffffffffffffffffffffffffffff166106d1610ba3565b73ffffffffffffffffffffffffffffffffffffffff16148061070057506106ff6106f9610ba3565b33611135565b5b61073f576040517f08c379a000000000000000000000000000000000000000000000000000000000815260040161073690613559565b60405180910390fd5b816003600083815260200190815260200160002060006101000a81548173ffffffffffffffffffffffffffffffffffffffff021916908373ffffffffffffffffffffffffffffffffffffffff160217905550808273ffffffffffffffffffffffffffffffffffffffff163373ffffffffffffffffffffffffffffffffffffffff167f8c5be1e5ebec7d5bd14f71427d1e84f3dd0314c0f7b2291e5b200ac8c7c3b92560405160405180910390a45050565b336000809054906101000a900473ffffffffffffffffffffffffffffffffffffffff1673ffffffffffffffffffffffffffffffffffffffff168173ffffffffffffffffffffffffffffffffffffffff1614610880576040517f08c379a000000000000000000000000000000000000000000000000000000000815260040161087790613579565b60405180910390fd5b81600060146101000a81548160ff021916908315150217905550600060149054906101000a900460ff16156108eb577f62e78cea01bee320cd4e420270b5ea74000d11b0c9f74754ebdbfc544b05a258336040516108de91906133cc565b60405180910390a1610923565b7fff2b959f2bcdb44c7ecb4b16dae055431019d7350607125cfc2b74a06632c90e3360405161091a91906133cc565b60405180910390a15b5050565b6000600880549050905090565b61093e338261136b565b61094757600080fd5b610952838383611400565b505050565b610996828260006040519080825280601f01601f1916602001820160405280156109905781602001600182028038833980820191505090505b50610a0d565b5050565b60006109a583610b53565b82106109b057600080fd5b600660008473ffffffffffffffffffffffffffffffffffffffff1673ffffffffffffffffffffffffffffffffffffffff16815260200190815260200160002082815481106109fa57fe5b9060005260206000200154905092915050565b505050565b6000336000809054906101000a900473ffffffffffffffffffffffffffffffffffffffff1673ffffffffffffffffffffffffffffffffffffffff168173ffffffffffffffffffffffffffffffffffffffff1614610aa4576040517f08c379a0000000000000000000000000000000000000000000000000000000008152600401610a9b90613579565b60405180910390fd5b610aae8484611424565b610ab783611445565b600191505092915050565b610add83838360405180602001604052806000815250610da4565b505050565b6000610aec610927565b8210610af757600080fd5b60088281548110610b0457fe5b90600052602060002001549050919050565b60006002600083815260200190815260200160002060009054906101000a900473ffffffffffffffffffffffffffffffffffffffff169050919050565b6000610b9c600460008473ffffffffffffffffffffffffffffffffffffffff1673ffffffffffffffffffffffffffffffffffffffff168152602001908152602001600020611563565b9050919050565b60008060009054906101000a900473ffffffffffffffffffffffffffffffffffffffff16905090565b606060108054600181600116156101000203166002900480601f016020809104026020016040519081016040528092919081815260200182805460018160011615610100020316600290048015610c645780601f10610c3957610100808354040283529160200191610c64565b820191906000526020600020905b815481529060010190602001808311610c4757829003601f168201915b5050505050905090565b3373ffffffffffffffffffffffffffffffffffffffff168273ffffffffffffffffffffffffffffffffffffffff161415610ca757600080fd5b80600560003373ffffffffffffffffffffffffffffffffffffffff1673ffffffffffffffffffffffffffffffffffffffff16815260200190815260200160002060008473ffffffffffffffffffffffffffffffffffffffff1673ffffffffffffffffffffffffffffffffffffffff16815260200190815260200160002060006101000a81548160ff0219169083151502179055508173ffffffffffffffffffffffffffffffffffffffff163373ffffffffffffffffffffffffffffffffffffffff167f17307eab39ab6107e8899845ad3d59bd9653f200f220920489ca2b5937696c3183604051610d98919061345c565b60405180910390a35050565b610daf848484610934565b610dbb84848484611571565b610dc457600080fd5b50505050565b6000601754905090565b6060610ddf82611688565b610de857600080fd5b601260008381526020019081526020016000208054600181600116156101000203166002900480601f016020809104026020016040519081016040528092919081815260200182805460018160011615610100020316600290048015610e8f5780601f10610e6457610100808354040283529160200191610e8f565b820191906000526020600020905b815481529060010190602001808311610e7257829003601f168201915b50505050509050919050565b600082600001518360200151846040015184604051602001610ec094939291906135f9565b6040516020818303038152906040528051906020012090506000601560009054906101000a900473ffffffffffffffffffffffffffffffffffffffff1673ffffffffffffffffffffffffffffffffffffffff166343cd76fc85856040518363ffffffff1660e01b8152600401610f37929190613640565b60206040518083038186803b158015610f4f57600080fd5b505afa158015610f63573d6000803e3d6000fd5b505050506040513d601f19601f82011682018060405250610f879190810190612c3a565b9050600073ffffffffffffffffffffffffffffffffffffffff166018600084815260200190815260200160002060010160009054906101000a900473ffffffffffffffffffffffffffffffffffffffff1673ffffffffffffffffffffffffffffffffffffffff161461102e576040517f08c379a0000000000000000000000000000000000000000000000000000000008152600401611025906135d9565b60405180910390fd5b6001151581151514611075576040517f08c379a000000000000000000000000000000000000000000000000000000000815260040161106c906134f9565b60405180910390fd5b6110808587846116fa565b61108a8686610a12565b50505050505050565b606060118054600181600116156101000203166002900480601f01602080910402602001604051908101604052809291908181526020018280546001816001161561010002031660029004801561112b5780601f106111005761010080835404028352916020019161112b565b820191906000526020600020905b81548152906001019060200180831161110e57829003601f168201915b5050505050905090565b6000600560008473ffffffffffffffffffffffffffffffffffffffff1673ffffffffffffffffffffffffffffffffffffffff16815260200190815260200160002060008373ffffffffffffffffffffffffffffffffffffffff1673ffffffffffffffffffffffffffffffffffffffff16815260200190815260200160002060009054906101000a900460ff16905092915050565b336000809054906101000a900473ffffffffffffffffffffffffffffffffffffffff1673ffffffffffffffffffffffffffffffffffffffff168173ffffffffffffffffffffffffffffffffffffffff1614611259576040517f08c379a000000000000000000000000000000000000000000000000000000000815260040161125090613579565b60405180910390fd5b8173ffffffffffffffffffffffffffffffffffffffff168273ffffffffffffffffffffffffffffffffffffffff16146112c7576040517f08c379a00000000000000000000000000000000000000000000000000000000081526004016112be906134b9565b60405180910390fd5b60008060009054906101000a900473ffffffffffffffffffffffffffffffffffffffff169050826000806101000a81548173ffffffffffffffffffffffffffffffffffffffff021916908373ffffffffffffffffffffffffffffffffffffffff1602179055507fc725865e7cdcd866e230cd3a87b0f9178cebce0a4f3d2d2e026474a1e2ee4439818460405161135e929190613433565b60405180910390a1505050565b60008061137783610b16565b90508073ffffffffffffffffffffffffffffffffffffffff168473ffffffffffffffffffffffffffffffffffffffff1614806113e657508373ffffffffffffffffffffffffffffffffffffffff166113ce846105fe565b73ffffffffffffffffffffffffffffffffffffffff16145b806113f757506113f68185611135565b5b91505092915050565b61140b838383611919565b6114158382611b48565b61141f8282611ce6565b505050565b61142e8282611dad565b6114388282611ce6565b61144181611f2d565b5050565b61144e81611688565b61148d576040517f08c379a000000000000000000000000000000000000000000000000000000000815260040161148490613599565b60405180910390fd5b61153960118054600181600116156101000203166002900480601f0160208091040260200160405190810160405280929190818152602001828054600181600116156101000203166002900480156115265780601f106114fb57610100808354040283529160200191611526565b820191906000526020600020905b81548152906001019060200180831161150957829003601f168201915b505050505061153483611f79565b6120a6565b60126000838152602001908152602001600020908051906020019061155f9291906125e8565b5050565b600081600001549050919050565b60006115928473ffffffffffffffffffffffffffffffffffffffff166120ea565b61159f5760019050611680565b60008473ffffffffffffffffffffffffffffffffffffffff1663150b7a02338887876040518563ffffffff1660e01b81526004016115e094939291906133e7565b602060405180830381600087803b1580156115fa57600080fd5b505af115801561160e573d6000803e3d6000fd5b505050506040513d601f19601f820116820180604052506116329190810190612d5f565b905063150b7a0260e01b7bffffffffffffffffffffffffffffffffffffffffffffffffffffffff1916817bffffffffffffffffffffffffffffffffffffffffffffffffffffffff1916149150505b949350505050565b6000806002600084815260200190815260200160002060009054906101000a900473ffffffffffffffffffffffffffffffffffffffff169050600073ffffffffffffffffffffffffffffffffffffffff168173ffffffffffffffffffffffffffffffffffffffff161415915050919050565b600073ffffffffffffffffffffffffffffffffffffffff166018600083815260200190815260200160002060010160009054906101000a900473ffffffffffffffffffffffffffffffffffffffff1673ffffffffffffffffffffffffffffffffffffffff161461179f576040517f08c379a0000000000000000000000000000000000000000000000000000000008152600401611796906135d9565b60405180910390fd5b6117b5600160175461213590919063ffffffff16565b6017819055506117c3612668565b60405180604001604052808581526020018473ffffffffffffffffffffffffffffffffffffffff168152509050601681908060018154018082558091505090600182039060005260206000209060020201600090919290919091506000820151816000015560208201518160010160006101000a81548173ffffffffffffffffffffffffffffffffffffffff021916908373ffffffffffffffffffffffffffffffffffffffff16021790555050505080601860008481526020019081526020016000206000820151816000015560208201518160010160006101000a81548173ffffffffffffffffffffffffffffffffffffffff021916908373ffffffffffffffffffffffffffffffffffffffff1602179055509050507feee56a272e033e551b01fd6651d600222e9bca4956e1b6adcca67c56c267bf4a848460405161190b929190613686565b60405180910390a150505050565b8273ffffffffffffffffffffffffffffffffffffffff1661193982610b16565b73ffffffffffffffffffffffffffffffffffffffff161461198f576040517f08c379a000000000000000000000000000000000000000000000000000000000815260040161198690613519565b60405180910390fd5b600073ffffffffffffffffffffffffffffffffffffffff168273ffffffffffffffffffffffffffffffffffffffff1614156119ff576040517f08c379a00000000000000000000000000000000000000000000000000000000081526004016119f6906135b9565b60405180910390fd5b611a088161218a565b611a4f600460008473ffffffffffffffffffffffffffffffffffffffff1673ffffffffffffffffffffffffffffffffffffffff168152602001908152602001600020612248565b611a96600460008573ffffffffffffffffffffffffffffffffffffffff1673ffffffffffffffffffffffffffffffffffffffff16815260200190815260200160002061225e565b816002600083815260200190815260200160002060006101000a81548173ffffffffffffffffffffffffffffffffffffffff021916908373ffffffffffffffffffffffffffffffffffffffff160217905550808273ffffffffffffffffffffffffffffffffffffffff168473ffffffffffffffffffffffffffffffffffffffff167fddf252ad1be2c89b69c2b068fc378daa952ba7f163c4a11628f55a4df523b3ef60405160405180910390a4505050565b6000611ba06001600660008673ffffffffffffffffffffffffffffffffffffffff1673ffffffffffffffffffffffffffffffffffffffff1681526020019081526020016000208054905061228190919063ffffffff16565b9050600060076000848152602001908152602001600020549050818114611c8d576000600660008673ffffffffffffffffffffffffffffffffffffffff1673ffffffffffffffffffffffffffffffffffffffff1681526020019081526020016000208381548110611c0d57fe5b9060005260206000200154905080600660008773ffffffffffffffffffffffffffffffffffffffff1673ffffffffffffffffffffffffffffffffffffffff1681526020019081526020016000208381548110611c6557fe5b9060005260206000200181905550816007600083815260200190815260200160002081905550505b600660008573ffffffffffffffffffffffffffffffffffffffff1673ffffffffffffffffffffffffffffffffffffffff168152602001908152602001600020805480919060019003611cdf9190612698565b5050505050565b600660008373ffffffffffffffffffffffffffffffffffffffff1673ffffffffffffffffffffffffffffffffffffffff168152602001908152602001600020805490506007600083815260200190815260200160002081905550600660008373ffffffffffffffffffffffffffffffffffffffff1673ffffffffffffffffffffffffffffffffffffffff1681526020019081526020016000208190806001815401808255809150509060018203906000526020600020016000909192909190915055505050565b60011515611dba82611688565b15151480611df55750600073ffffffffffffffffffffffffffffffffffffffff168273ffffffffffffffffffffffffffffffffffffffff1614155b611e34576040517f08c379a0000000000000000000000000000000000000000000000000000000008152600401611e2b90613499565b60405180910390fd5b816002600083815260200190815260200160002060006101000a81548173ffffffffffffffffffffffffffffffffffffffff021916908373ffffffffffffffffffffffffffffffffffffffff160217905550611ecd600460008473ffffffffffffffffffffffffffffffffffffffff1673ffffffffffffffffffffffffffffffffffffffff168152602001908152602001600020612248565b808273ffffffffffffffffffffffffffffffffffffffff16600073ffffffffffffffffffffffffffffffffffffffff167fddf252ad1be2c89b69c2b068fc378daa952ba7f163c4a11628f55a4df523b3ef60405160405180910390a45050565b6008805490506009600083815260200190815260200160002081905550600881908060018154018082558091505090600182039060005260206000200160009091929091909150555050565b60606000821415611fc1576040518060400160405280600181526020017f300000000000000000000000000000000000000000000000000000000000000081525090506120a1565b600082905060005b60008214611feb578080600101915050600a8281611fe357fe5b049150611fc9565b6060816040519080825280601f01601f1916602001820160405280156120205781602001600182028038833980820191505090505b50905060006001830390505b6000861461209957600a868161203e57fe5b0660300160f81b8282806001900393508151811061205857fe5b60200101907effffffffffffffffffffffffffffffffffffffffffffffffffffffffffffff1916908160001a905350600a868161209157fe5b04955061202c565b819450505050505b919050565b60606120e283836040518060200160405280600081525060405180602001604052806000815250604051806020016040528060008152506122cb565b905092915050565b60008060007fc5d2460186f7233c927e7db2dcc703c0e500b653ca82273b7bfad8045d85a47060001b9050833f915080821415801561212c57506000801b8214155b92505050919050565b600080828401905083811015612180576040517f08c379a0000000000000000000000000000000000000000000000000000000008152600401612177906134d9565b60405180910390fd5b8091505092915050565b600073ffffffffffffffffffffffffffffffffffffffff166003600083815260200190815260200160002060009054906101000a900473ffffffffffffffffffffffffffffffffffffffff1673ffffffffffffffffffffffffffffffffffffffff16146122455760006003600083815260200190815260200160002060006101000a81548173ffffffffffffffffffffffffffffffffffffffff021916908373ffffffffffffffffffffffffffffffffffffffff1602179055505b50565b6001816000016000828254019250508190555050565b6122766001826000015461228190919063ffffffff16565b816000018190555050565b60006122c383836040518060400160405280601e81526020017f536166654d6174683a207375627472616374696f6e206f766572666c6f77000081525061258d565b905092915050565b6060808690506060869050606086905060608690506060869050606081518351855187518951010101016040519080825280601f01601f1916602001820160405280156123275781602001600182028038833980820191505090505b509050606081905060008090506000809050600090505b88518110156123ac5788818151811061235357fe5b602001015160f81c60f81b83838060010194508151811061237057fe5b60200101907effffffffffffffffffffffffffffffffffffffffffffffffffffffffffffff1916908160001a905350808060010191505061233e565b600090505b875181101561241f578781815181106123c657fe5b602001015160f81c60f81b8383806001019450815181106123e357fe5b60200101907effffffffffffffffffffffffffffffffffffffffffffffffffffffffffffff1916908160001a90535080806001019150506123b1565b600090505b86518110156124925786818151811061243957fe5b602001015160f81c60f81b83838060010194508151811061245657fe5b60200101907effffffffffffffffffffffffffffffffffffffffffffffffffffffffffffff1916908160001a9053508080600101915050612424565b600090505b8551811015612505578581815181106124ac57fe5b602001015160f81c60f81b8383806001019450815181106124c957fe5b60200101907effffffffffffffffffffffffffffffffffffffffffffffffffffffffffffff1916908160001a9053508080600101915050612497565b600090505b84518110156125785784818151811061251f57fe5b602001015160f81c60f81b83838060010194508151811061253c57fe5b60200101907effffffffffffffffffffffffffffffffffffffffffffffffffffffffffffff1916908160001a905350808060010191505061250a565b82995050505050505050505095945050505050565b60008383111582906125d5576040517f08c379a00000000000000000000000000000000000000000000000000000000081526004016125cc9190613477565b60405180910390fd5b5060008385039050809150509392505050565b828054600181600116156101000203166002900490600052602060002090601f016020900481019282601f1061262957805160ff1916838001178555612657565b82800160010185558215612657579182015b8281111561265657825182559160200191906001019061263b565b5b50905061266491906126c4565b5090565b604051806040016040528060008152602001600073ffffffffffffffffffffffffffffffffffffffff1681525090565b8154818355818111156126bf578183600052602060002091820191016126be91906126c4565b5b505050565b6126e691905b808211156126e25760008160009055506001016126ca565b5090565b90565b6000813590506126f881613911565b92915050565b600082601f83011261270f57600080fd5b600261272261271d826136dc565b6136af565b9150818385602084028201111561273857600080fd5b60005b83811015612768578161274e88826129f0565b84526020840193506020830192505060018101905061273b565b5050505092915050565b600082601f83011261278357600080fd5b6002612796612791826136fe565b6136af565b915081838560208402820111156127ac57600080fd5b60005b838110156127dc57816127c288826129f0565b8452602084019350602083019250506001810190506127af565b5050505092915050565b6000813590506127f581613928565b92915050565b60008151905061280a81613928565b92915050565b60008135905061281f8161393f565b92915050565b60008135905061283481613956565b92915050565b60008151905061284981613956565b92915050565b600082601f83011261286057600080fd5b813561287361286e82613720565b6136af565b9150808252602083016020830185838301111561288f57600080fd5b61289a8382846138be565b50505092915050565b600082601f8301126128b457600080fd5b81356128c76128c28261374c565b6136af565b915080825260208301602083018583830111156128e357600080fd5b6128ee8382846138be565b50505092915050565b60006040828403121561290957600080fd5b61291360406136af565b90506000612923848285016129f0565b6000830152506020612937848285016129f0565b60208301525092915050565b60006080828403121561295557600080fd5b61295f60406136af565b9050600061296f848285016126fe565b6000830152506040612983848285016126fe565b60208301525092915050565b600061010082840312156129a257600080fd5b6129ac60606136af565b905060006129bc848285016128f7565b60008301525060406129d084828501612943565b60208301525060c06129e4848285016128f7565b60408301525092915050565b6000813590506129ff8161396d565b92915050565b600060208284031215612a1757600080fd5b6000612a25848285016126e9565b91505092915050565b60008060408385031215612a4157600080fd5b6000612a4f858286016126e9565b9250506020612a60858286016126e9565b9150509250929050565b600080600060608486031215612a7f57600080fd5b6000612a8d868287016126e9565b9350506020612a9e868287016126e9565b9250506040612aaf868287016129f0565b9150509250925092565b60008060008060808587031215612acf57600080fd5b6000612add878288016126e9565b9450506020612aee878288016126e9565b9350506040612aff878288016129f0565b925050606085013567ffffffffffffffff811115612b1c57600080fd5b612b288782880161284f565b91505092959194509250565b60008060408385031215612b4757600080fd5b6000612b55858286016126e9565b9250506020612b66858286016127e6565b9150509250929050565b60008060408385031215612b8357600080fd5b6000612b91858286016126e9565b9250506020612ba2858286016129f0565b9150509250929050565b6000806000806101808587031215612bc357600080fd5b6000612bd1878288016126e9565b9450506020612be2878288016129f0565b9350506040612bf38782880161298f565b925050610140612c0587828801612772565b91505092959194509250565b600060208284031215612c2357600080fd5b6000612c31848285016127e6565b91505092915050565b600060208284031215612c4c57600080fd5b6000612c5a848285016127fb565b91505092915050565b60008060408385031215612c7657600080fd5b6000612c8485828601612810565b925050602083013567ffffffffffffffff811115612ca157600080fd5b612cad858286016128a3565b9150509250929050565b600080600060608486031215612ccc57600080fd5b6000612cda86828701612810565b935050602084013567ffffffffffffffff811115612cf757600080fd5b612d03868287016128a3565b925050604084013567ffffffffffffffff811115612d2057600080fd5b612d2c8682870161284f565b9150509250925092565b600060208284031215612d4857600080fd5b6000612d5684828501612825565b91505092915050565b600060208284031215612d7157600080fd5b6000612d7f8482850161283a565b91505092915050565b600060208284031215612d9a57600080fd5b6000612da8848285016129f0565b91505092915050565b6000612dbd8383613393565b60208301905092915050565b612dd281613888565b82525050565b612de18161380a565b82525050565b612df081613797565b612dfa81846137dd565b9250612e0582613782565b8060005b83811015612e36578151612e1d8782612db1565b9650612e28836137c5565b925050600181019050612e09565b505050505050565b612e478161378c565b612e5181846137d2565b9250612e5c82613778565b8060005b83811015612e8d578151612e748782612db1565b9650612e7f836137b8565b925050600181019050612e60565b505050505050565b612e9e8161381c565b82525050565b6000612eaf826137a2565b612eb981856137e8565b9350612ec98185602086016138cd565b612ed281613900565b840191505092915050565b6000612ee8826137ad565b612ef281856137f9565b9350612f028185602086016138cd565b612f0b81613900565b840191505092915050565b6000612f23602a836137f9565b91507f41646472657373206e6565647320746f2062652076616c696420616e6420746f60008301527f6b656e20756e69717565000000000000000000000000000000000000000000006020830152604082019050919050565b6000612f89600f836137f9565b91507f496e76616c6964206164647265737300000000000000000000000000000000006000830152602082019050919050565b6000612fc9601b836137f9565b91507f536166654d6174683a206164646974696f6e206f766572666c6f7700000000006000830152602082019050919050565b60006130096012836137f9565b91507f50726f6f66206973206e6f742076616c696400000000000000000000000000006000830152602082019050919050565b6000613049601f836137f9565b91507f546f6b656e206973206e6f74206f776e656420627920726571756573746572006000830152602082019050919050565b6000613089603b836137f9565b91507f476976656e20616464726573732073686f756c64206e6f74206265206571756160008301527f6c20746f20746865206f776e6572206f662074686520746f6b656e00000000006020830152604082019050919050565b60006130ef6045836137f9565b91507f546f206170726f7665206120746f6b656e207472616e736665722c20796f752060008301527f6e65656420746f20626520617070726f766564206279206f7220626520616e2060208301527f6f776e65720000000000000000000000000000000000000000000000000000006040830152606082019050919050565b600061317b6030836137f9565b91507f43616c6c696e672061646472657373206973206e6f7420746865204f776e657260008301527f206f662074686520636f6e7472616374000000000000000000000000000000006020830152604082019050919050565b60006131e16016836137f9565b91507f546f6b656e494420646f6573206e6f74206578697374000000000000000000006000830152602082019050919050565b60006132216015836137f9565b91507f546f206164647265737320697320696e76616c696400000000000000000000006000830152602082019050919050565b60006132616016836137f9565b91507f536f6c7574696f6e206973206e6f7420756e69717565000000000000000000006000830152602082019050919050565b6040820160008201516132aa6000850182613393565b5060208201516132bd6020850182613393565b50505050565b6040820160008201516132d96000850182613393565b5060208201516132ec6020850182613393565b50505050565b6080820160008201516133086000850182612e3e565b50602082015161331b6040850182612e3e565b50505050565b6080820160008201516133376000850182612e3e565b50602082015161334a6040850182612e3e565b50505050565b610100820160008201516133676000850182613294565b50602082015161337a60408501826132f2565b50604082015161338d60c0850182613294565b50505050565b61339c8161387e565b82525050565b6133ab8161387e565b82525050565b60006020820190506133c66000830184612dd8565b92915050565b60006020820190506133e16000830184612dc9565b92915050565b60006080820190506133fc6000830187612dc9565b6134096020830186612dd8565b61341660408301856133a2565b81810360608301526134288184612ea4565b905095945050505050565b60006040820190506134486000830185612dd8565b6134556020830184612dd8565b9392505050565b60006020820190506134716000830184612e95565b92915050565b600060208201905081810360008301526134918184612edd565b905092915050565b600060208201905081810360008301526134b281612f16565b9050919050565b600060208201905081810360008301526134d281612f7c565b9050919050565b600060208201905081810360008301526134f281612fbc565b9050919050565b6000602082019050818103600083015261351281612ffc565b9050919050565b600060208201905081810360008301526135328161303c565b9050919050565b600060208201905081810360008301526135528161307c565b9050919050565b60006020820190508181036000830152613572816130e2565b9050919050565b600060208201905081810360008301526135928161316e565b9050919050565b600060208201905081810360008301526135b2816131d4565b9050919050565b600060208201905081810360008301526135d281613214565b9050919050565b600060208201905081810360008301526135f281613254565b9050919050565b60006101408201905061360f60008301876132c3565b61361c6040830186613321565b61362960c08301856132c3565b613637610100830184612de7565b95945050505050565b6000610140820190506136566000830185613350565b613664610100830184612de7565b9392505050565b600060208201905061368060008301846133a2565b92915050565b600060408201905061369b60008301856133a2565b6136a86020830184612dd8565b9392505050565b6000604051905081810181811067ffffffffffffffff821117156136d257600080fd5b8060405250919050565b600067ffffffffffffffff8211156136f357600080fd5b602082029050919050565b600067ffffffffffffffff82111561371557600080fd5b602082029050919050565b600067ffffffffffffffff82111561373757600080fd5b601f19601f8301169050602081019050919050565b600067ffffffffffffffff82111561376357600080fd5b601f19601f8301169050602081019050919050565b6000819050919050565b6000819050919050565b600060029050919050565b600060029050919050565b600081519050919050565b600081519050919050565b6000602082019050919050565b6000602082019050919050565b600081905092915050565b600081905092915050565b600082825260208201905092915050565b600082825260208201905092915050565b60006138158261385e565b9050919050565b60008115159050919050565b6000819050919050565b60007fffffffff0000000000000000000000000000000000000000000000000000000082169050919050565b600073ffffffffffffffffffffffffffffffffffffffff82169050919050565b6000819050919050565b60006138938261389a565b9050919050565b60006138a5826138ac565b9050919050565b60006138b78261385e565b9050919050565b82818337600083830152505050565b60005b838110156138eb5780820151818401526020810190506138d0565b838111156138fa576000848401525b50505050565b6000601f19601f8301169050919050565b61391a8161380a565b811461392557600080fd5b50565b6139318161381c565b811461393c57600080fd5b50565b61394881613828565b811461395357600080fd5b50565b61395f81613832565b811461396a57600080fd5b50565b6139768161387e565b811461398157600080fd5b5056fea365627a7a7231582056a42ad65f71191e402d5bc0c75cfe541860c576b3d11f98ec6cd6bfc42315206c6578706572696d656e74616cf564736f6c63430005100040608060405234801561001057600080fd5b506110bf806100206000396000f3fe608060405234801561001057600080fd5b506004361061002b5760003560e01c806343cd76fc14610030575b600080fd5b61004a60048036036100459190810190610f76565b610060565b6040516100579190610fc3565b60405180910390f35b6000606060026040519080825280602002602001820160405280156100945781602001602082028038833980820191505090505b50905060008090505b60028110156100dc578381600281106100b257fe5b60200201518282815181106100c357fe5b602002602001018181525050808060010191505061009d565b5060006100e98286610105565b14156100f95760019150506100ff565b60009150505b92915050565b6000807f30644e72e131a029b85045b68181585d2833e84879b9709143e1f593f00000019050610133610c57565b61013b610277565b905080608001515160018651011461015257600080fd5b61015a610c9e565b6040518060400160405280600081526020016000815250905060008090505b86518110156101f0578387828151811061018f57fe5b6020026020010151106101a157600080fd5b6101e1826101dc856080015160018501815181106101bb57fe5b60200260200101518a85815181106101cf57fe5b60200260200101516106c3565b610755565b91508080600101915050610179565b5061021381836080015160008151811061020657fe5b6020026020010151610755565b90506102598560000151866020015161022b84610806565b856040015161023d8a60400151610806565b876060015161024f8960000151610806565b89602001516108a0565b6102695760019350505050610271565b600093505050505b92915050565b61027f610c57565b60405180604001604052807e4f41017ecdfcc4b5026935d45d68e9993db7be5847db8b207abc110e28908181526020017f092732d3a6ae47875443a8e72537ed8a328534f44b636ecd58907c5afc53e3f68152508160000181905250604051806040016040528060405180604001604052807f0c39e5181036ed0f8c1c85d1ac112d0e4496f16e5ef1b4a46c235993ce15a11881526020017f0400930cd7fe891745b2eed967ffb21e6cde3ba58d033f815b2bdecafe6f8123815250815260200160405180604001604052807f1934c4ceb682ef04591740725080c7284e351b298984b506403ed7c8763dd68181526020017e23a617aa24a802d9baff09a92f62b54818eae95c80a75c9a65514a523a61498152508152508160200181905250604051806040016040528060405180604001604052807f139a7e966aa1d036ba5b1c5d98cdba1729b54cdc2352494b99e39e791e837d8081526020017f12a82d45be0c19fcd58b31a90f2fdcab984e001fb3f733add0c599c6dbfdc3f4815250815260200160405180604001604052807f126e0eace5ded6218fc98cf0fe657dfa09034668c7b026c89daa97493c3e14e481526020017f217d47974ae25c79e07edec132cf76e0156d614c44c64e2719b9f3a16f0731b68152508152508160400181905250604051806040016040528060405180604001604052807f08e7b84962f1c68c61cb701372c13932e2efb3389aabb8d994c4d62dc2df5f6f81526020017f159acf2928a2ceb129cd27893bdddfa4ec4a089b31dd07719b89577cf9188733815250815260200160405180604001604052807f1635cc96908cba7a1f9a82745b6c956e4d164e630e72fbf8d5143529c94ccc4f81526020017f2e61fea983fee1df0c246fc8afc2b6731e7984c3144c0ebabcb786cd10ff488c8152508152508160600181905250600360405190808252806020026020018201604052801561056457816020015b610551610cb8565b8152602001906001900390816105495790505b50816080018190525060405180604001604052807f1087e1865a7e551206a6ddde240c83f358bb536de344d72720ed746877f6531581526020017f01d6ff8816ca81dd91f8572b4c53725b0b847e93f72a9b9913814d994d3eaf1381525081608001516000815181106105d357fe5b602002602001018190525060405180604001604052807f01c18a646d88f565be85c3afe9a5831ba9f7e058b4cb664ab1fd6aa9983ce66081526020017f0efb8f484a3fd0a180d9e2c5ed1f6429cf1d37c6de68e524ed2946d545312bbd815250816080015160018151811061064457fe5b602002602001018190525060405180604001604052807f0139ae845161f3164aa13f52e073f39ebba1e3f059426808ef8a922b5c60576781526020017f2b847bf569d09e394f5338b62dd247d0ae0ccada5fa804619292c80a221365cc81525081608001516002815181106106b557fe5b602002602001018190525090565b6106cb610c9e565b6106d3610cd2565b8360000151816000600381106106e557fe5b60200201818152505083602001518160016003811061070057fe5b602002018181525050828160026003811061071757fe5b602002018181525050600060608360808460076107d05a03fa9050806000811461074057610742565bfe5b508061074d57600080fd5b505092915050565b61075d610c9e565b610765610cf4565b83600001518160006004811061077757fe5b60200201818152505083602001518160016004811061079257fe5b6020020181815250508260000151816002600481106107ad57fe5b6020020181815250508260200151816003600481106107c857fe5b602002018181525050600060608360c08460066107d05a03fa905080600081146107f1576107f3565bfe5b50806107fe57600080fd5b505092915050565b61080e610c9e565b60007f30644e72e131a029b85045b68181585d97816a916871ca8d3c208c16d87cfd4790506000836000015114801561084b575060008360200151145b1561086f57604051806040016040528060008152602001600081525091505061089b565b6040518060400160405280846000015181526020018285602001518161089157fe5b0683038152509150505b919050565b6000606060046040519080825280602002602001820160405280156108df57816020015b6108cc610cb8565b8152602001906001900390816108c45790505b5090506060600460405190808252806020026020018201604052801561091f57816020015b61090c610d16565b8152602001906001900390816109045790505b5090508a8260008151811061093057fe5b6020026020010181905250888260018151811061094957fe5b6020026020010181905250868260028151811061096257fe5b6020026020010181905250848260038151811061097b57fe5b6020026020010181905250898160008151811061099457fe5b602002602001018190525087816001815181106109ad57fe5b602002602001018190525085816002815181106109c657fe5b602002602001018190525083816003815181106109df57fe5b60200260200101819052506109f48282610a04565b9250505098975050505050505050565b60008151835114610a1457600080fd5b6000835190506000600682029050606081604051908082528060200260200182016040528015610a535781602001602082028038833980820191505090505b50905060008090505b83811015610bf957868181518110610a7057fe5b602002602001015160000151826000600684020181518110610a8e57fe5b602002602001018181525050868181518110610aa657fe5b602002602001015160200151826001600684020181518110610ac457fe5b602002602001018181525050858181518110610adc57fe5b602002602001015160000151600160028110610af457fe5b6020020151826002600684020181518110610b0b57fe5b602002602001018181525050858181518110610b2357fe5b602002602001015160000151600060028110610b3b57fe5b6020020151826003600684020181518110610b5257fe5b602002602001018181525050858181518110610b6a57fe5b602002602001015160200151600160028110610b8257fe5b6020020151826004600684020181518110610b9957fe5b602002602001018181525050858181518110610bb157fe5b602002602001015160200151600060028110610bc957fe5b6020020151826005600684020181518110610be057fe5b6020026020010181815250508080600101915050610a5c565b50610c02610d3c565b6000602082602086026020860160086107d05a03fa90508060008114610c2757610c29565bfe5b5080610c3457600080fd5b600082600060018110610c4357fe5b602002015114159550505050505092915050565b6040518060a00160405280610c6a610cb8565b8152602001610c77610d16565b8152602001610c84610d16565b8152602001610c91610d16565b8152602001606081525090565b604051806040016040528060008152602001600081525090565b604051806040016040528060008152602001600081525090565b6040518060600160405280600390602082028038833980820191505090505090565b6040518060800160405280600490602082028038833980820191505090505090565b6040518060400160405280610d29610d5e565b8152602001610d36610d5e565b81525090565b6040518060200160405280600190602082028038833980820191505090505090565b6040518060400160405280600290602082028038833980820191505090505090565b600082601f830112610d9157600080fd5b6002610da4610d9f8261100b565b610fde565b91508183856020840282011115610dba57600080fd5b60005b83811015610dea5781610dd08882610f61565b845260208401935060208301925050600181019050610dbd565b5050505092915050565b600082601f830112610e0557600080fd5b6002610e18610e138261102d565b610fde565b91508183856020840282011115610e2e57600080fd5b60005b83811015610e5e5781610e448882610f61565b845260208401935060208301925050600181019050610e31565b5050505092915050565b600060408284031215610e7a57600080fd5b610e846040610fde565b90506000610e9484828501610f61565b6000830152506020610ea884828501610f61565b60208301525092915050565b600060808284031215610ec657600080fd5b610ed06040610fde565b90506000610ee084828501610d80565b6000830152506040610ef484828501610d80565b60208301525092915050565b60006101008284031215610f1357600080fd5b610f1d6060610fde565b90506000610f2d84828501610e68565b6000830152506040610f4184828501610eb4565b60208301525060c0610f5584828501610e68565b60408301525092915050565b600081359050610f7081611065565b92915050565b6000806101408385031215610f8a57600080fd5b6000610f9885828601610f00565b925050610100610faa85828601610df4565b9150509250929050565b610fbd8161104f565b82525050565b6000602082019050610fd86000830184610fb4565b92915050565b6000604051905081810181811067ffffffffffffffff8211171561100157600080fd5b8060405250919050565b600067ffffffffffffffff82111561102257600080fd5b602082029050919050565b600067ffffffffffffffff82111561104457600080fd5b602082029050919050565b60008115159050919050565b6000819050919050565b61106e8161105b565b811461107957600080fd5b5056fea365627a7a72315820ee944fc35173046d2b0411c7b8b6bde10b5cd9b48bbaaaad26ed94d9acb746a76c6578706572696d656e74616cf564736f6c6343000510004068747470733a2f2f73332d75732d776573742d322e616d617a6f6e6177732e636f6d2f756461636974792d626c6f636b636861696e2f63617073746f6e652f",
  "source": "pragma experimental ABIEncoderV2;\npragma solidity >=0.4.21 <0.6.0;\n\nimport './Verifier.sol';\nimport './ERC721Mintable.sol';\n\ncontract SolnSquareVerifier is CustomERC721Mintable {\n    Verifier verifierContract;\n\n    constructor(string memory name, string memory symbol) CustomERC721Mintable(name, symbol) public {\n        verifierContract = new Verifier();\n    }\n\n    struct Solutions {\n        uint256 index;\n        address verifierAddress;\n    }\n\n    Solutions[] private solutionsArray;\n    uint256 private solutionsCount = 0;\n    mapping(bytes32 => Solutions) private uniqueSolutions;\n\n    event CreateSolution(uint256 index, address verifierAddress);\n\n    function createSolution(uint256 index, address verifierAddress, bytes32 key) internal {\n        require(uniqueSolutions[key].verifierAddress == address(0), 'Solution is not unique');\n        solutionsCount = solutionsCount.add(1);\n        Solutions memory newSolution = Solutions(index, verifierAddress);\n        solutionsArray.push(newSolution);\n        uniqueSolutions[key] = newSolution;\n\n        emit CreateSolution(index, verifierAddress);\n    }\n\n    function getSolutionsNumber() public view returns(uint256) {\n        return solutionsCount;\n    }\n\n    function mintVerifySol(\n        address to,\n        uint256 tokenId,\n        Verifier.Proof memory proof, \n        uint[2] memory input\n    ) public {\n        bytes32 key = keccak256(abi.encode(proof.a, proof.b, proof.c, input));\n        bool solutionResult = verifierContract.verifyTx(proof, input);\n\n        require(uniqueSolutions[key].verifierAddress == address(0), 'Solution is not unique');\n        require(solutionResult == true, \"Proof is not valid\");\n\n        createSolution(tokenId, to, key);\n        super.mint(to, tokenId);\n    }\n}\n\n  \n\n\n\n\n\n\n\n\n\n\n\n\n\n\n\n\n\n\n\n\n\n\n\n\n\n\n",
  "sourcePath": "/Users/sergiunistorcosmin/Desktop/decentralizedNeighborhood/Blockchain-Capstone/contracts/SolnSquareVerifier.sol",
  "compiler": {
    "name": "solc",
    "version": "0.5.16+commit.9c3226ce.Emscripten.clang"
  },
  "schemaVersion": "3.4.5",
  "updatedAt": "2022-07-14T16:08:24.172Z",
  "networkType": "ethereum",
  "devdoc": {
    "methods": {
      "isApprovedForAll(address,address)": {
        "details": "Tells whether an operator is approved by a given owner",
        "params": {
          "operator": "operator address which you want to query the approval of",
          "owner": "owner address which you want to query the approval of"
        },
        "return": "bool whether the given operator is approved by the given owner"
      },
      "setApprovalForAll(address,bool)": {
        "details": "Sets or unsets the approval of a given operator An operator is allowed to transfer all tokens of the sender on their behalf",
        "params": {
          "approved": "representing the status of the approval to be set",
          "to": "operator address to set the approval"
        }
      },
      "supportsInterface(bytes4)": {
        "details": "implement supportsInterface(bytes4) using a lookup table"
      },
      "tokenByIndex(uint256)": {
        "details": "Gets the token ID at a given index of all the tokens in this contract Reverts if the index is greater or equal to the total number of tokens",
        "params": {
          "index": "uint256 representing the index to be accessed of the tokens list"
        },
        "return": "uint256 token ID at the given index of the tokens list"
      },
      "tokenOfOwnerByIndex(address,uint256)": {
        "details": "Gets the token ID at a given index of the tokens list of the requested owner",
        "params": {
          "index": "uint256 representing the index to be accessed of the requested tokens list",
          "owner": "address owning the tokens list to be accessed"
        },
        "return": "uint256 token ID at the given index of the tokens list owned by the requested address"
      },
      "totalSupply()": {
        "details": "Gets the total amount of tokens stored by the contract",
        "return": "uint256 representing the total amount of tokens"
      }
    }
  },
  "userdoc": {
    "methods": {}
  }
}